{
  "_format": "hh-sol-artifact-1",
  "contractName": "TweetContract",
  "sourceName": "contracts/ligthTwitterContract.sol",
  "abi": [
    {
      "anonymous": false,
      "inputs": [
        {
          "indexed": false,
          "internalType": "address",
          "name": "recipient",
          "type": "address"
        },
        {
          "indexed": false,
          "internalType": "uint256",
          "name": "tweetId",
          "type": "uint256"
        }
      ],
      "name": "AddTweetEV",
      "type": "event"
    },
    {
      "anonymous": false,
      "inputs": [
        {
          "indexed": false,
          "internalType": "uint256",
          "name": "tweetId",
          "type": "uint256"
        },
        {
          "indexed": false,
          "internalType": "bool",
          "name": "isDeleted",
          "type": "bool"
        }
      ],
      "name": "DeleteTweetEV",
      "type": "event"
    },
    {
      "anonymous": false,
      "inputs": [
        {
          "indexed": false,
          "internalType": "uint256",
          "name": "tweetId",
          "type": "uint256"
        },
        {
          "indexed": false,
          "internalType": "bool",
          "name": "isUpdated",
          "type": "bool"
        }
      ],
      "name": "UpdateTweetEV",
      "type": "event"
    },
    {
      "inputs": [
        {
          "internalType": "string",
          "name": "text",
          "type": "string"
        },
        {
          "internalType": "bool",
          "name": "isDeleted",
          "type": "bool"
        },
        {
          "internalType": "bool",
          "name": "isUpdated",
          "type": "bool"
        }
      ],
      "name": "addTweet",
      "outputs": [],
      "stateMutability": "nonpayable",
      "type": "function"
    },
    {
      "inputs": [
        {
          "internalType": "uint256",
          "name": "tweetId",
          "type": "uint256"
        },
        {
          "internalType": "bool",
          "name": "isDeleted",
          "type": "bool"
        }
      ],
      "name": "deleteTweet",
      "outputs": [],
      "stateMutability": "nonpayable",
      "type": "function"
    },
    {
      "inputs": [],
      "name": "getAllTweets",
      "outputs": [
        {
          "components": [
            {
              "internalType": "uint256",
              "name": "tweetId",
              "type": "uint256"
            },
            {
              "internalType": "address",
              "name": "username",
              "type": "address"
            },
            {
              "internalType": "string",
              "name": "userTweet",
              "type": "string"
            },
            {
              "internalType": "bool",
              "name": "isDeleted",
              "type": "bool"
            },
            {
              "internalType": "bool",
              "name": "isUpdated",
              "type": "bool"
            }
          ],
          "internalType": "struct TweetContract.Tweet[]",
          "name": "",
          "type": "tuple[]"
        }
      ],
      "stateMutability": "view",
      "type": "function"
    },
    {
      "inputs": [],
      "name": "getOwnTweet",
      "outputs": [
        {
          "components": [
            {
              "internalType": "uint256",
              "name": "tweetId",
              "type": "uint256"
            },
            {
              "internalType": "address",
              "name": "username",
              "type": "address"
            },
            {
              "internalType": "string",
              "name": "userTweet",
              "type": "string"
            },
            {
              "internalType": "bool",
              "name": "isDeleted",
              "type": "bool"
            },
            {
              "internalType": "bool",
              "name": "isUpdated",
              "type": "bool"
            }
          ],
          "internalType": "struct TweetContract.Tweet[]",
          "name": "",
          "type": "tuple[]"
        }
      ],
      "stateMutability": "view",
      "type": "function"
    },
    {
      "inputs": [
        {
          "internalType": "uint256",
          "name": "tweetId",
          "type": "uint256"
        },
        {
          "internalType": "bool",
          "name": "isUpdated",
          "type": "bool"
        }
      ],
      "name": "updateTweet",
      "outputs": [],
      "stateMutability": "nonpayable",
      "type": "function"
    }
  ],
  "bytecode": "0x608060405234801561001057600080fd5b50611434806100206000396000f3fe608060405234801561001057600080fd5b50600436106100575760003560e01c80633ebdb9961461005c57806353256135146100785780639869c47814610096578063f0312a37146100b2578063fbd50284146100ce575b600080fd5b61007660048036038101906100719190610f0f565b6100ec565b005b6100806101f4565b60405161008d9190611106565b60405180910390f35b6100b060048036038101906100ab9190610ea8565b6105fb565b005b6100cc60048036038101906100c79190610f0f565b6107b1565b005b6100d66108b9565b6040516100e39190611106565b60405180910390f35b3373ffffffffffffffffffffffffffffffffffffffff166001600084815260200190815260200160002060009054906101000a900473ffffffffffffffffffffffffffffffffffffffff1673ffffffffffffffffffffffffffffffffffffffff1614156101f057806000838154811061018e577f4e487b7100000000000000000000000000000000000000000000000000000000600052603260045260246000fd5b906000526020600020906004020160030160016101000a81548160ff0219169083151502179055507fa816de8f071a9aaaaadd60057dd734057563acd8bab63c9e00b2649aaf2ebe0182826040516101e7929190611128565b60405180910390a15b5050565b60606000808054905067ffffffffffffffff81111561023c577f4e487b7100000000000000000000000000000000000000000000000000000000600052604160045260246000fd5b60405190808252806020026020018201604052801561027557816020015b610262610d2a565b81526020019060019003908161025a5790505b5090506000805b6000805490508110156104cf5760001515600082815481106102c7577f4e487b7100000000000000000000000000000000000000000000000000000000600052603260045260246000fd5b906000526020600020906004020160030160009054906101000a900460ff16151514156104bc5760008181548110610328577f4e487b7100000000000000000000000000000000000000000000000000000000600052603260045260246000fd5b90600052602060002090600402016040518060a0016040529081600082015481526020016001820160009054906101000a900473ffffffffffffffffffffffffffffffffffffffff1673ffffffffffffffffffffffffffffffffffffffff1673ffffffffffffffffffffffffffffffffffffffff1681526020016002820180546103b190611286565b80601f01602080910402602001604051908101604052809291908181526020018280546103dd90611286565b801561042a5780601f106103ff5761010080835404028352916020019161042a565b820191906000526020600020905b81548152906001019060200180831161040d57829003601f168201915b505050505081526020016003820160009054906101000a900460ff161515151581526020016003820160019054906101000a900460ff1615151515815250508383815181106104a2577f4e487b7100000000000000000000000000000000000000000000000000000000600052603260045260246000fd5b602002602001018190525081806104b8906112e9565b9250505b80806104c7906112e9565b91505061027c565b5060008167ffffffffffffffff811115610512577f4e487b7100000000000000000000000000000000000000000000000000000000600052604160045260246000fd5b60405190808252806020026020018201604052801561054b57816020015b610538610d2a565b8152602001906001900390816105305790505b50905060005b828110156105f157838181518110610592577f4e487b7100000000000000000000000000000000000000000000000000000000600052603260045260246000fd5b60200260200101518282815181106105d3577f4e487b7100000000000000000000000000000000000000000000000000000000600052603260045260246000fd5b602002602001018190525080806105e9906112e9565b915050610551565b5080935050505090565b60008080549050905060006040518060a001604052808381526020013373ffffffffffffffffffffffffffffffffffffffff168152602001868152602001851515815260200184151581525090806001815401808255809150506001900390600052602060002090600402016000909190919091506000820151816000015560208201518160010160006101000a81548173ffffffffffffffffffffffffffffffffffffffff021916908373ffffffffffffffffffffffffffffffffffffffff16021790555060408201518160020190805190602001906106dd929190610d73565b5060608201518160030160006101000a81548160ff02191690831515021790555060808201518160030160016101000a81548160ff0219169083151502179055505050336001600083815260200190815260200160002060006101000a81548173ffffffffffffffffffffffffffffffffffffffff021916908373ffffffffffffffffffffffffffffffffffffffff1602179055507f468c7c92388208764619ef46ebfe75b3cbf3026d563ce3bb4899387d1032925633826040516107a39291906110dd565b60405180910390a150505050565b3373ffffffffffffffffffffffffffffffffffffffff166001600084815260200190815260200160002060009054906101000a900473ffffffffffffffffffffffffffffffffffffffff1673ffffffffffffffffffffffffffffffffffffffff1614156108b5578060008381548110610853577f4e487b7100000000000000000000000000000000000000000000000000000000600052603260045260246000fd5b906000526020600020906004020160030160006101000a81548160ff0219169083151502179055507f2ba7183376572eeff75ac14b66c443011e1f777ec50f24a021711d2c30bbf95982826040516108ac929190611128565b60405180910390a15b5050565b60606000808054905067ffffffffffffffff811115610901577f4e487b7100000000000000000000000000000000000000000000000000000000600052604160045260246000fd5b60405190808252806020026020018201604052801561093a57816020015b610927610d2a565b81526020019060019003908161091f5790505b5090506000805b600080549050811015610bfe573373ffffffffffffffffffffffffffffffffffffffff166001600083815260200190815260200160002060009054906101000a900473ffffffffffffffffffffffffffffffffffffffff1673ffffffffffffffffffffffffffffffffffffffff16148015610a18575060001515600082815481106109f5577f4e487b7100000000000000000000000000000000000000000000000000000000600052603260045260246000fd5b906000526020600020906004020160030160009054906101000a900460ff161515145b15610beb5760008181548110610a57577f4e487b7100000000000000000000000000000000000000000000000000000000600052603260045260246000fd5b90600052602060002090600402016040518060a0016040529081600082015481526020016001820160009054906101000a900473ffffffffffffffffffffffffffffffffffffffff1673ffffffffffffffffffffffffffffffffffffffff1673ffffffffffffffffffffffffffffffffffffffff168152602001600282018054610ae090611286565b80601f0160208091040260200160405190810160405280929190818152602001828054610b0c90611286565b8015610b595780601f10610b2e57610100808354040283529160200191610b59565b820191906000526020600020905b815481529060010190602001808311610b3c57829003601f168201915b505050505081526020016003820160009054906101000a900460ff161515151581526020016003820160019054906101000a900460ff161515151581525050838381518110610bd1577f4e487b7100000000000000000000000000000000000000000000000000000000600052603260045260246000fd5b60200260200101819052508180610be7906112e9565b9250505b8080610bf6906112e9565b915050610941565b5060008167ffffffffffffffff811115610c41577f4e487b7100000000000000000000000000000000000000000000000000000000600052604160045260246000fd5b604051908082528060200260200182016040528015610c7a57816020015b610c67610d2a565b815260200190600190039081610c5f5790505b50905060005b82811015610d2057838181518110610cc1577f4e487b7100000000000000000000000000000000000000000000000000000000600052603260045260246000fd5b6020026020010151828281518110610d02577f4e487b7100000000000000000000000000000000000000000000000000000000600052603260045260246000fd5b60200260200101819052508080610d18906112e9565b915050610c80565b5080935050505090565b6040518060a0016040528060008152602001600073ffffffffffffffffffffffffffffffffffffffff168152602001606081526020016000151581526020016000151581525090565b828054610d7f90611286565b90600052602060002090601f016020900481019282610da15760008555610de8565b82601f10610dba57805160ff1916838001178555610de8565b82800160010185558215610de8579182015b82811115610de7578251825591602001919060010190610dcc565b5b509050610df59190610df9565b5090565b5b80821115610e12576000816000905550600101610dfa565b5090565b6000610e29610e2484611176565b611151565b905082815260208101848484011115610e4157600080fd5b610e4c848285611244565b509392505050565b600081359050610e63816113d0565b92915050565b600082601f830112610e7a57600080fd5b8135610e8a848260208601610e16565b91505092915050565b600081359050610ea2816113e7565b92915050565b600080600060608486031215610ebd57600080fd5b600084013567ffffffffffffffff811115610ed757600080fd5b610ee386828701610e69565b9350506020610ef486828701610e54565b9250506040610f0586828701610e54565b9150509250925092565b60008060408385031215610f2257600080fd5b6000610f3085828601610e93565b9250506020610f4185828601610e54565b9150509250929050565b6000610f578383611049565b905092915050565b610f68816111fc565b82525050565b610f77816111fc565b82525050565b6000610f88826111b7565b610f9281856111da565b935083602082028501610fa4856111a7565b8060005b85811015610fe05784840389528151610fc18582610f4b565b9450610fcc836111cd565b925060208a01995050600181019050610fa8565b50829750879550505050505092915050565b610ffb8161120e565b82525050565b61100a8161120e565b82525050565b600061101b826111c2565b61102581856111eb565b9350611035818560208601611253565b61103e816113bf565b840191505092915050565b600060a08301600083015161106160008601826110bf565b5060208301516110746020860182610f5f565b506040830151848203604086015261108c8282611010565b91505060608301516110a16060860182610ff2565b5060808301516110b46080860182610ff2565b508091505092915050565b6110c88161123a565b82525050565b6110d78161123a565b82525050565b60006040820190506110f26000830185610f6e565b6110ff60208301846110ce565b9392505050565b600060208201905081810360008301526111208184610f7d565b905092915050565b600060408201905061113d60008301856110ce565b61114a6020830184611001565b9392505050565b600061115b61116c565b905061116782826112b8565b919050565b6000604051905090565b600067ffffffffffffffff82111561119157611190611390565b5b61119a826113bf565b9050602081019050919050565b6000819050602082019050919050565b600081519050919050565b600081519050919050565b6000602082019050919050565b600082825260208201905092915050565b600082825260208201905092915050565b60006112078261121a565b9050919050565b60008115159050919050565b600073ffffffffffffffffffffffffffffffffffffffff82169050919050565b6000819050919050565b82818337600083830152505050565b60005b83811015611271578082015181840152602081019050611256565b83811115611280576000848401525b50505050565b6000600282049050600182168061129e57607f821691505b602082108114156112b2576112b1611361565b5b50919050565b6112c1826113bf565b810181811067ffffffffffffffff821117156112e0576112df611390565b5b80604052505050565b60006112f48261123a565b91507fffffffffffffffffffffffffffffffffffffffffffffffffffffffffffffffff82141561132757611326611332565b5b600182019050919050565b7f4e487b7100000000000000000000000000000000000000000000000000000000600052601160045260246000fd5b7f4e487b7100000000000000000000000000000000000000000000000000000000600052602260045260246000fd5b7f4e487b7100000000000000000000000000000000000000000000000000000000600052604160045260246000fd5b6000601f19601f8301169050919050565b6113d98161120e565b81146113e457600080fd5b50565b6113f08161123a565b81146113fb57600080fd5b5056fea264697066735822122024f32f1e8d51d67abca96f68bfa0c30b917c62c382d72e90310245f70e96a03964736f6c63430008040033",
  "linkReferences": {},
  "deployedLinkReferences": {}
}